:02000000212CB1
:10000600403083120313F0001F30F100F201F301B8
:020016000800E0
:10001800831203132230FC00F801F901FA01FB01F5
:10002800FC03031942280310FB0CFA0CF90CF80C1A
:10003800F30CF20CF10CF00C031C1428FC0303194C
:1000480034287408F80775080318750FF907760837
:100058000318760FFA0777080318770FFB07182895
:100068007408F80775080318750FF9077608031858
:0E007800760FFA0777080318770FFB070800CA
:1000860083120313FB01FA01F901F801A001730DB4
:10009600F80D7408F8027508031C750FF902760846
:1000A600031C760FFA027708031C770FFB02000188
:1000B600031C0130A002F30D0730FC00730DF80D90
:1000C600F90DFA0DFB0DA00D7408731C7C28F802BF
:1000D6007508031C750FF9027608031C760FFA02E1
:1000E6007708031C770FFB020001031C0130A002F6
:1000F6008D28F80775080318750FF9077608031891
:10010600760FFA0777080318770FFB070001031825
:100116000130A007F30DFC0B6128720DF80DF90DE7
:10012600FA0DFB0DA00D7408731CAB28F8027508B8
:10013600031C750FF9027608031C760FFA0277087E
:10014600031C770FFB020001031C0130A002BC2830
:10015600F80775080318750FF90776080318760F60
:10016600FA0777080318770FFB0700010318013019
:10017600A007F20D0730FC00720DF80DF90DFA0D0F
:10018600FB0DA00D7408721CDA28F8027508031C12
:10019600750FF9027608031C760FFA027708031C1E
:1001A600770FFB020001031C0130A002EB28F807C1
:1001B60075080318750FF90776080318760FFA07FE
:1001C60077080318770FFB07000103180130A00713
:1001D600F20DFC0BBF28710DF80DF90DFA0DFB0D94
:1001E600A00D7408721C0929F8027508031C750F06
:1001F600F9027608031C760FFA027708031C770FBC
:10020600FB020001031C0130A0021A29F807750839
:100216000318750FF90776080318760FFA0777089B
:100226000318770FFB07000103180130A007F10D33
:100236000730FC00710DF80DF90DFA0DFB0DA00D40
:100246007408711C3829F8027508031C750FF90229
:100256007608031C760FFA027708031C770FFB0259
:100266000001031C0130A0024929F807750803188C
:10027600750FF90776080318760FFA07770803183B
:10028600770FFB07000103180130A007F10DFC0BE7
:100296001D29700DF80DF90DFA0DFB0DA00D740852
:1002A600711C6729F8027508031C750FF902760898
:1002B600031C760FFA027708031C770FFB02000176
:1002C600031C0130A0027829F80775080318750F7A
:1002D600F90776080318760FFA0777080318770FD9
:1002E600FB07000103180130A007F00D0730FC00E2
:1002F600700DF80DF90DFA0DFB0DA00D7408701CAC
:100306009629F8027508031C750FF9027608031C76
:10031600760FFA027708031C770FFB020001031C15
:100326000130A002A729F80775080318750FF90709
:1003360076080318760FFA0777080318770FFB0776
:10034600000103180130A007F00DFC0B7B29701883
:10035600BA297408F80775080318750FF90776089F
:100366000318760FFA0777080318770FFB070800BC
:1003760083120313F801F9011030FC00710DF80D1A
:10038600F90D7408F8027508031C750FF9020318B5
:10039600D3297408F80775080318750FF9070310B1
:0A03A600F00DF10DFC0BC129080059
:1003B00083120313B903B9033908003C0318E52974
:1003C000B903000000000000DC290000000000006C
:0603D0000000000008001F
:1003D600823083120313FC00DD30FD00FD0BF12992
:0A03E600FC0BF129000000000800E4
:1003F0000320E830F4000330F500F601F7010C208B
:100400007008B5007108B6007208B7007308B8002C
:100410002D08F4002E08F500F601F70143207008BE
:10042000B5007108B6007208B7007308B80070080C
:10043000F5007108F6007208F7007308F800F80C70
:10044000F70CF60CF50CF813F80CF70CF60CF50C91
:10045000F8137508F0007608F1007708F2007808C4
:10046000F300F30CF20CF10CF00CF3137008B10074
:100470007108B20003202F08F4003008F500F601DF
:10048000F7010C203108F9003208FA00FB01FC01E9
:100490000330F8007908F4007A08F5007B08F600CC
:1004A0007C08F700780803195C2AF40DF50DF60DA9
:1004B000F70D7410FF3E532A43207008B5007108F1
:1004C000B6007208B7007308B8000A30F4000030B4
:1004D000F5003108F0003208F100BB217008B100CE
:1004E0007108B20000307102031D782A03307002D7
:1004F00003187B2AC82A230884003808003C031DFF
:100500008B2A3708003C031D8B2A3608003C031D4C
:100510008B2A3508003C0318C62A240880043208B8
:100520000319A22AB301B40100303402031D9A2A30
:10053000320833020318A22AB901D821B30A0319D9
:10054000B40A942A3108B900D82125088005320858
:100550000319BA2AB301B40100303402031DB22AD0
:10056000320833020318BA2AB901D821B30A031991
:10057000B40AAC2A3108B900D8210130B502031CF5
:10058000B602031CB702031CB8027D2A25088005A9
:02059000080061
:10059200831203132908AD002A08AE002B08AF000E
:0A05A2002C08B000F821EB2108003E
:1005AC00933083120313A9000230AA006430AB000D
:1005BC000030AC00C922BA30A9000230AA00643065
:1005CC00AB000030AC00C9221030A9000330AA00E7
:1005DC00C830AB00AC01C9227030A9000330AA00AE
:1005EC009630AB00AC01C922DC30A9000330AA0064
:0C05FC002C30AB000130AC00C92208001C
:10060800B83083120313A9000130AA002C30AB00C4
:100618000130AC00C9228830A9000130AA002C3072
:10062800AB000130AC00C9227230A9000130AA0029
:100638002C30AB000130AC00C9225D30A90001307C
:0E064800AA009030AB000130AC00C9220800BF
:10065600933083120313A9000230AA009630AB0030
:10066600AC01C922EE30A9000130AA009630AB00D9
:10067600AC01C9220B30A9000230AA009630AB00AB
:10068600AC01C9224B30A9000230AA009630AB005B
:10069600AC01C9220B30A9000230AA006430AB00BD
:1006A6000030AC00C922EE30A9000130AA00643047
:1006B600AB000030AC00C922B830A9000130AA0056
:1006C6009630AB00AC01C922B830A9000130AA00AF
:1006D6006430AB000030AC00C9220B30A9000230F8
:1006E600AA006430AB000030AC00C9229330A900E8
:1006F6000230AA009630AB00AC01C9224B30A900EB
:100706000230AA006430AB000030AC00C9220B30C6
:10071600A9000230AA006430AB000030AC00C92248
:10072600EE30A9000130AA00C830AB00AC01C922E6
:020736000800B9
:10073800933083120313A9000230AA009630AB004D
:10074800AC01C9221030A9000330AA009630AB00D2
:10075800AC01C9227030A9000330AA00C830AB0030
:10076800AC01C9221030A9000330AA009630AB00B2
:10077800AC01C9229330A9000230AA002C30AB008A
:080788000130AC00C922080099
:10079000933083120313A9000230AA00C830AB00C3
:1007A000AC01C9229330A9000230AA00C830AB00C6
:1007B000AC01C9229330A9000230AA00C830AB00B6
:1007C000AC01C9220B30A9000230AA00C830AB002E
:1007D000AC01C9229330A9000230AA00C830AB0096
:1007E000AC01C9221030A9000330AA00C830AB0008
:1007F000AC01C9228830A9000130AA009030AB00BA
:080800000130AC00C922080020
:10080800831203132708A3002808F1000130F00021
:1008180071080319132CF00D7010FF3E0D2C700891
:10082800A400F0097008A50080302707840070082C
:0A0838008005841370088005080095
:10084200831603178801890183128713881383167D
:100852000313870107308312A7000330A800042482
:1008620083160614861406158312A601061C3A2C5A
:100872002614861C3D2CA614061D402C26154C2C35
:10088200C823612C2B23612C9C23612CD622612C42
:100892000423612C612C2608013A0319412C2608F5
:1008A200023A0319432C2608033A0319452C260859
:1008B200043A0319472C2608053A0319492C4B2CF4
:1008C2008230FC00DD30FD00FD0B652CFC0B652C3D
:0808D20000000000352C6C2C25
:04400E00F22F000786
:00000001FF
